{
  "contractName": "VendingMachine",
  "abi": [
    {
      "inputs": [],
      "stateMutability": "nonpayable",
      "type": "constructor"
    },
    {
      "inputs": [
        {
          "internalType": "address",
          "name": "",
          "type": "address"
        }
      ],
      "name": "donutbalance",
      "outputs": [
        {
          "internalType": "uint256",
          "name": "",
          "type": "uint256"
        }
      ],
      "stateMutability": "view",
      "type": "function",
      "constant": true
    },
    {
      "inputs": [],
      "name": "owner",
      "outputs": [
        {
          "internalType": "address",
          "name": "",
          "type": "address"
        }
      ],
      "stateMutability": "view",
      "type": "function",
      "constant": true
    },
    {
      "inputs": [],
      "name": "getvendingmachinebalance",
      "outputs": [
        {
          "internalType": "uint256",
          "name": "",
          "type": "uint256"
        }
      ],
      "stateMutability": "view",
      "type": "function",
      "constant": true
    },
    {
      "inputs": [
        {
          "internalType": "uint256",
          "name": "amt",
          "type": "uint256"
        }
      ],
      "name": "restock",
      "outputs": [],
      "stateMutability": "nonpayable",
      "type": "function"
    },
    {
      "inputs": [
        {
          "internalType": "uint256",
          "name": "amt",
          "type": "uint256"
        }
      ],
      "name": "purchase",
      "outputs": [],
      "stateMutability": "payable",
      "type": "function",
      "payable": true
    }
  ],
  "bytecode": "0x608060405234801561001057600080fd5b50336000806101000a81548173ffffffffffffffffffffffffffffffffffffffff021916908373ffffffffffffffffffffffffffffffffffffffff1602179055506064600160003073ffffffffffffffffffffffffffffffffffffffff1673ffffffffffffffffffffffffffffffffffffffff16815260200190815260200160002081905550610823806100a56000396000f3fe60806040526004361061004a5760003560e01c80634095d77d1461004f5780638da5cb5b1461007a578063c21a702a146100a5578063d9c88d7a146100ce578063efef39a11461010b575b600080fd5b34801561005b57600080fd5b50610064610127565b6040516100719190610431565b60405180910390f35b34801561008657600080fd5b5061008f61016e565b60405161009c919061048d565b60405180910390f35b3480156100b157600080fd5b506100cc60048036038101906100c791906104d9565b610192565b005b3480156100da57600080fd5b506100f560048036038101906100f09190610532565b610279565b6040516101029190610431565b60405180910390f35b610125600480360381019061012091906104d9565b610291565b005b6000600160003073ffffffffffffffffffffffffffffffffffffffff1673ffffffffffffffffffffffffffffffffffffffff16815260200190815260200160002054905090565b60008054906101000a900473ffffffffffffffffffffffffffffffffffffffff1681565b60008054906101000a900473ffffffffffffffffffffffffffffffffffffffff1673ffffffffffffffffffffffffffffffffffffffff163373ffffffffffffffffffffffffffffffffffffffff1614610220576040517f08c379a0000000000000000000000000000000000000000000000000000000008152600401610217906105bc565b60405180910390fd5b80600160003073ffffffffffffffffffffffffffffffffffffffff1673ffffffffffffffffffffffffffffffffffffffff168152602001908152602001600020600082825461026f919061060b565b9250508190555050565b60016020528060005260406000206000915090505481565b671bc16d674ec80000816102a59190610661565b3410156102e7576040517f08c379a00000000000000000000000000000000000000000000000000000000081526004016102de9061072d565b60405180910390fd5b80600160003073ffffffffffffffffffffffffffffffffffffffff1673ffffffffffffffffffffffffffffffffffffffff168152602001908152602001600020541015610369576040517f08c379a000000000000000000000000000000000000000000000000000000000815260040161036090610799565b60405180910390fd5b80600160003073ffffffffffffffffffffffffffffffffffffffff1673ffffffffffffffffffffffffffffffffffffffff16815260200190815260200160002060008282546103b891906107b9565b9250508190555080600160003373ffffffffffffffffffffffffffffffffffffffff1673ffffffffffffffffffffffffffffffffffffffff168152602001908152602001600020600082825461040e919061060b565b9250508190555050565b6000819050919050565b61042b81610418565b82525050565b60006020820190506104466000830184610422565b92915050565b600073ffffffffffffffffffffffffffffffffffffffff82169050919050565b60006104778261044c565b9050919050565b6104878161046c565b82525050565b60006020820190506104a2600083018461047e565b92915050565b600080fd5b6104b681610418565b81146104c157600080fd5b50565b6000813590506104d3816104ad565b92915050565b6000602082840312156104ef576104ee6104a8565b5b60006104fd848285016104c4565b91505092915050565b61050f8161046c565b811461051a57600080fd5b50565b60008135905061052c81610506565b92915050565b600060208284031215610548576105476104a8565b5b60006105568482850161051d565b91505092915050565b600082825260208201905092915050565b7f6f6e6c79206f776e65722063616e20726573746f636b00000000000000000000600082015250565b60006105a660168361055f565b91506105b182610570565b602082019050919050565b600060208201905081810360008301526105d581610599565b9050919050565b7f4e487b7100000000000000000000000000000000000000000000000000000000600052601160045260246000fd5b600061061682610418565b915061062183610418565b9250827fffffffffffffffffffffffffffffffffffffffffffffffffffffffffffffffff03821115610656576106556105dc565b5b828201905092915050565b600061066c82610418565b915061067783610418565b9250817fffffffffffffffffffffffffffffffffffffffffffffffffffffffffffffffff04831182151516156106b0576106af6105dc565b5b828202905092915050565b7f796f75206d757368206861766520746f2070617920322065746865727320706560008201527f7220646f6e757400000000000000000000000000000000000000000000000000602082015250565b600061071760278361055f565b9150610722826106bb565b604082019050919050565b600060208201905081810360008301526107468161070a565b9050919050565b7f6e6f7420656e6f75676820646f6e7420696e202073746f636b00000000000000600082015250565b600061078360198361055f565b915061078e8261074d565b602082019050919050565b600060208201905081810360008301526107b281610776565b9050919050565b60006107c482610418565b91506107cf83610418565b9250828210156107e2576107e16105dc565b5b82820390509291505056fea2646970667358221220af64616ba52abd642405a284e5624f221a71dab15067e5eebf486d8d3b1098a864736f6c634300080b0033",
  "immutableReferences": {},
  "source": "// SPDX-License-Identifier: MIT\npragma solidity ^0.8.0;\n\ncontract VendingMachine {\n  //state variable\n  address public owner;\n  mapping(address=>uint) public donutbalance;\n\n  constructor(){\n    owner = msg.sender;\n    donutbalance[address(this)] = 100;\n  }\n\n  function getvendingmachinebalance() public view returns(uint){\n    return donutbalance[address(this)];\n    }\n  \n  function restock(uint amt)public {\n    require(msg.sender==owner,'only owner can restock');\n    donutbalance[address(this)] += amt;\n  }\n  \n  function purchase( uint amt) public payable{\n   require(msg.value >= amt * 2 ether, 'you mush have to pay 2 ethers per donut');\n   require(donutbalance[address(this)] >= amt, 'not enough dont in  stock');\n  donutbalance[address(this)] -= amt;\n  donutbalance[msg.sender] += amt;\n  }\n}\n",
  "sourcePath": "C:\\Users\\SACHIN T\\Desktop\\reaact\\vending_mach_dapp\\contracts\\vending-machine.sol",
  "compiler": {
    "name": "solc",
    "version": "0.8.11+commit.d7f03943.Emscripten.clang"
  },
  "schemaVersion": "3.4.4",
  "updatedAt": "2022-07-11T21:07:01.788Z",
  "networkType": "ethereum",
  "devdoc": {
    "kind": "dev",
    "methods": {},
    "version": 1
  },
  "userdoc": {
    "kind": "user",
    "methods": {},
    "version": 1
  }
}